{
  "contractName": "Token",
  "abi": [
    {
      "inputs": [],
      "stateMutability": "nonpayable",
      "type": "constructor"
    },
    {
      "anonymous": false,
      "inputs": [
        {
          "indexed": true,
          "internalType": "address",
          "name": "owner",
          "type": "address"
        },
        {
          "indexed": true,
          "internalType": "address",
          "name": "spender",
          "type": "address"
        },
        {
          "indexed": false,
          "internalType": "uint256",
          "name": "value",
          "type": "uint256"
        }
      ],
      "name": "Approval",
      "type": "event"
    },
    {
      "anonymous": false,
      "inputs": [
        {
          "indexed": true,
          "internalType": "address",
          "name": "previousOwner",
          "type": "address"
        },
        {
          "indexed": true,
          "internalType": "address",
          "name": "newOwner",
          "type": "address"
        }
      ],
      "name": "OwnershipTransferred",
      "type": "event"
    },
    {
      "anonymous": false,
      "inputs": [
        {
          "indexed": true,
          "internalType": "address",
          "name": "from",
          "type": "address"
        },
        {
          "indexed": true,
          "internalType": "address",
          "name": "to",
          "type": "address"
        },
        {
          "indexed": false,
          "internalType": "uint256",
          "name": "value",
          "type": "uint256"
        }
      ],
      "name": "Transfer",
      "type": "event"
    },
    {
      "inputs": [],
      "name": "decimals",
      "outputs": [
        {
          "internalType": "uint8",
          "name": "",
          "type": "uint8"
        }
      ],
      "stateMutability": "view",
      "type": "function"
    },
    {
      "inputs": [],
      "name": "name",
      "outputs": [
        {
          "internalType": "string",
          "name": "",
          "type": "string"
        }
      ],
      "stateMutability": "view",
      "type": "function"
    },
    {
      "inputs": [],
      "name": "owner",
      "outputs": [
        {
          "internalType": "address",
          "name": "",
          "type": "address"
        }
      ],
      "stateMutability": "view",
      "type": "function"
    },
    {
      "inputs": [],
      "name": "renounceOwnership",
      "outputs": [],
      "stateMutability": "nonpayable",
      "type": "function"
    },
    {
      "inputs": [],
      "name": "symbol",
      "outputs": [
        {
          "internalType": "string",
          "name": "",
          "type": "string"
        }
      ],
      "stateMutability": "view",
      "type": "function"
    },
    {
      "inputs": [],
      "name": "taxFee",
      "outputs": [
        {
          "internalType": "uint8",
          "name": "",
          "type": "uint8"
        }
      ],
      "stateMutability": "view",
      "type": "function"
    },
    {
      "inputs": [
        {
          "internalType": "address",
          "name": "newOwner",
          "type": "address"
        }
      ],
      "name": "transferOwnership",
      "outputs": [],
      "stateMutability": "nonpayable",
      "type": "function"
    },
    {
      "stateMutability": "payable",
      "type": "receive"
    },
    {
      "inputs": [],
      "name": "totalSupply",
      "outputs": [
        {
          "internalType": "uint256",
          "name": "",
          "type": "uint256"
        }
      ],
      "stateMutability": "view",
      "type": "function"
    },
    {
      "inputs": [
        {
          "internalType": "uint8",
          "name": "fee",
          "type": "uint8"
        }
      ],
      "name": "setTaxFeePercent",
      "outputs": [],
      "stateMutability": "nonpayable",
      "type": "function"
    },
    {
      "inputs": [
        {
          "internalType": "address",
          "name": "account",
          "type": "address"
        }
      ],
      "name": "balanceOf",
      "outputs": [
        {
          "internalType": "uint256",
          "name": "",
          "type": "uint256"
        }
      ],
      "stateMutability": "view",
      "type": "function"
    },
    {
      "inputs": [
        {
          "internalType": "address",
          "name": "recipient",
          "type": "address"
        },
        {
          "internalType": "uint256",
          "name": "amount",
          "type": "uint256"
        }
      ],
      "name": "transfer",
      "outputs": [
        {
          "internalType": "bool",
          "name": "",
          "type": "bool"
        }
      ],
      "stateMutability": "nonpayable",
      "type": "function"
    },
    {
      "inputs": [
        {
          "internalType": "address",
          "name": "spender",
          "type": "address"
        },
        {
          "internalType": "uint256",
          "name": "amount",
          "type": "uint256"
        }
      ],
      "name": "approve",
      "outputs": [
        {
          "internalType": "bool",
          "name": "",
          "type": "bool"
        }
      ],
      "stateMutability": "nonpayable",
      "type": "function"
    },
    {
      "inputs": [
        {
          "internalType": "address",
          "name": "sender",
          "type": "address"
        },
        {
          "internalType": "address",
          "name": "recipient",
          "type": "address"
        },
        {
          "internalType": "uint256",
          "name": "amount",
          "type": "uint256"
        }
      ],
      "name": "transferFrom",
      "outputs": [
        {
          "internalType": "bool",
          "name": "",
          "type": "bool"
        }
      ],
      "stateMutability": "nonpayable",
      "type": "function"
    },
    {
      "inputs": [
        {
          "internalType": "address",
          "name": "owner",
          "type": "address"
        },
        {
          "internalType": "address",
          "name": "spender",
          "type": "address"
        }
      ],
      "name": "allowance",
      "outputs": [
        {
          "internalType": "uint256",
          "name": "",
          "type": "uint256"
        }
      ],
      "stateMutability": "view",
      "type": "function"
    }
  ],
  "bytecode": "0x60806040526040518060400160405280600481526020017f476f6b75000000000000000000000000000000000000000000000000000000008152506001908051906020019062000051929190620002a8565b506040518060400160405280600481526020017f474f4b5500000000000000000000000000000000000000000000000000000000815250600290805190602001906200009f929190620002a8565b506009600360006101000a81548160ff021916908360ff16021790555069d3c21bcecceda10000006004556004547fffffffffffffffffffffffffffffffffffffffffffffffffffffffffffffffff620000fa9190620003d3565b7fffffffffffffffffffffffffffffffffffffffffffffffffffffffffffffffff62000127919062000358565b6005556005600760006101000a81548160ff021916908360ff1602179055503480156200015357600080fd5b50600062000166620002a060201b60201c565b9050806000806101000a81548173ffffffffffffffffffffffffffffffffffffffff021916908373ffffffffffffffffffffffffffffffffffffffff1602179055508073ffffffffffffffffffffffffffffffffffffffff16600073ffffffffffffffffffffffffffffffffffffffff167f8be0079c531659141344cd1fd0a4f28419497f9722a3daafe3b4186f6b6457e060405160405180910390a35030600960006101000a81548173ffffffffffffffffffffffffffffffffffffffff021916908373ffffffffffffffffffffffffffffffffffffffff160217905550600554600860006200025c620002a060201b60201c565b73ffffffffffffffffffffffffffffffffffffffff1673ffffffffffffffffffffffffffffffffffffffff1681526020019081526020016000208190555062000498565b600033905090565b828054620002b6906200039d565b90600052602060002090601f016020900481019282620002da576000855562000326565b82601f10620002f557805160ff191683800117855562000326565b8280016001018555821562000326579182015b828111156200032557825182559160200191906001019062000308565b5b50905062000335919062000339565b5090565b5b80821115620003545760008160009055506001016200033a565b5090565b6000620003658262000393565b9150620003728362000393565b9250828210156200038857620003876200040b565b5b828203905092915050565b6000819050919050565b60006002820490506001821680620003b657607f821691505b60208210811415620003cd57620003cc62000469565b5b50919050565b6000620003e08262000393565b9150620003ed8362000393565b9250826200040057620003ff6200043a565b5b828206905092915050565b7f4e487b7100000000000000000000000000000000000000000000000000000000600052601160045260246000fd5b7f4e487b7100000000000000000000000000000000000000000000000000000000600052601260045260246000fd5b7f4e487b7100000000000000000000000000000000000000000000000000000000600052602260045260246000fd5b61140180620004a86000396000f3fe6080604052600436106100e15760003560e01c80638da5cb5b1161007f578063a071dcf411610059578063a071dcf4146102bb578063a9059cbb146102e6578063dd62ed3e14610323578063f2fde38b14610360576100e8565b80638da5cb5b1461023c5780639381f6fd1461026757806395d89b4114610290576100e8565b806323b872dd116100bb57806323b872dd14610180578063313ce567146101bd57806370a08231146101e8578063715018a614610225576100e8565b806306fdde03146100ed578063095ea7b31461011857806318160ddd14610155576100e8565b366100e857005b600080fd5b3480156100f957600080fd5b50610102610389565b60405161010f9190610ee9565b60405180910390f35b34801561012457600080fd5b5061013f600480360381019061013a9190610d4d565b61041b565b60405161014c9190610ece565b60405180910390f35b34801561016157600080fd5b5061016a610427565b6040516101779190610f8b565b60405180910390f35b34801561018c57600080fd5b506101a760048036038101906101a29190610cfe565b610431565b6040516101b49190610ece565b60405180910390f35b3480156101c957600080fd5b506101d261043e565b6040516101df9190610fa6565b60405180910390f35b3480156101f457600080fd5b5061020f600480360381019061020a9190610c99565b610455565b60405161021c9190610f8b565b60405180910390f35b34801561023157600080fd5b5061023a6104a6565b005b34801561024857600080fd5b506102516105e0565b60405161025e9190610eb3565b60405180910390f35b34801561027357600080fd5b5061028e60048036038101906102899190610d89565b610609565b005b34801561029c57600080fd5b506102a56106a3565b6040516102b29190610ee9565b60405180910390f35b3480156102c757600080fd5b506102d0610735565b6040516102dd9190610fa6565b60405180910390f35b3480156102f257600080fd5b5061030d60048036038101906103089190610d4d565b610748565b60405161031a9190610ece565b60405180910390f35b34801561032f57600080fd5b5061034a60048036038101906103459190610cc2565b610766565b6040516103579190610f8b565b60405180910390f35b34801561036c57600080fd5b5061038760048036038101906103829190610c99565b61076e565b005b6060600180546103989061117a565b80601f01602080910402602001604051908101604052809291908181526020018280546103c49061117a565b80156104115780601f106103e657610100808354040283529160200191610411565b820191906000526020600020905b8154815290600101906020018083116103f457829003601f168201915b5050505050905090565b60006001905092915050565b6000600454905090565b6000600190509392505050565b6000600360009054906101000a900460ff16905090565b600061049f600860008473ffffffffffffffffffffffffffffffffffffffff1673ffffffffffffffffffffffffffffffffffffffff16815260200190815260200160002054610917565b9050919050565b6104ae610978565b73ffffffffffffffffffffffffffffffffffffffff166104cc6105e0565b73ffffffffffffffffffffffffffffffffffffffff1614610522576040517f08c379a000000000000000000000000000000000000000000000000000000000815260040161051990610f4b565b60405180910390fd5b600073ffffffffffffffffffffffffffffffffffffffff1660008054906101000a900473ffffffffffffffffffffffffffffffffffffffff1673ffffffffffffffffffffffffffffffffffffffff167f8be0079c531659141344cd1fd0a4f28419497f9722a3daafe3b4186f6b6457e060405160405180910390a360008060006101000a81548173ffffffffffffffffffffffffffffffffffffffff021916908373ffffffffffffffffffffffffffffffffffffffff160217905550565b60008060009054906101000a900473ffffffffffffffffffffffffffffffffffffffff16905090565b610611610978565b73ffffffffffffffffffffffffffffffffffffffff1661062f6105e0565b73ffffffffffffffffffffffffffffffffffffffff1614610685576040517f08c379a000000000000000000000000000000000000000000000000000000000815260040161067c90610f4b565b60405180910390fd5b80600760006101000a81548160ff021916908360ff16021790555050565b6060600280546106b29061117a565b80601f01602080910402602001604051908101604052809291908181526020018280546106de9061117a565b801561072b5780601f106107005761010080835404028352916020019161072b565b820191906000526020600020905b81548152906001019060200180831161070e57829003601f168201915b5050505050905090565b600760009054906101000a900460ff1681565b600061075c610755610978565b8484610980565b6001905092915050565b600092915050565b610776610978565b73ffffffffffffffffffffffffffffffffffffffff166107946105e0565b73ffffffffffffffffffffffffffffffffffffffff16146107ea576040517f08c379a00000000000000000000000000000000000000000000000000000000081526004016107e190610f4b565b60405180910390fd5b600073ffffffffffffffffffffffffffffffffffffffff168173ffffffffffffffffffffffffffffffffffffffff16141561085a576040517f08c379a000000000000000000000000000000000000000000000000000000000815260040161085190610f0b565b60405180910390fd5b8073ffffffffffffffffffffffffffffffffffffffff1660008054906101000a900473ffffffffffffffffffffffffffffffffffffffff1673ffffffffffffffffffffffffffffffffffffffff167f8be0079c531659141344cd1fd0a4f28419497f9722a3daafe3b4186f6b6457e060405160405180910390a3806000806101000a81548173ffffffffffffffffffffffffffffffffffffffff021916908373ffffffffffffffffffffffffffffffffffffffff16021790555050565b600081600554101561095e576040517f08c379a000000000000000000000000000000000000000000000000000000000815260040161095590610f6b565b60405180910390fd5b610966610b31565b826109719190611033565b9050919050565b600033905090565b61098981610b48565b600860008573ffffffffffffffffffffffffffffffffffffffff1673ffffffffffffffffffffffffffffffffffffffff168152602001908152602001600020546109d391906110be565b600860008573ffffffffffffffffffffffffffffffffffffffff1673ffffffffffffffffffffffffffffffffffffffff16815260200190815260200160002081905550600080610a2283610ba9565b91509150610a2f81610b48565b600860008673ffffffffffffffffffffffffffffffffffffffff1673ffffffffffffffffffffffffffffffffffffffff16815260200190815260200160002054610a799190610fdd565b600860008673ffffffffffffffffffffffffffffffffffffffff1673ffffffffffffffffffffffffffffffffffffffff16815260200190815260200160002081905550610ac582610bd6565b8373ffffffffffffffffffffffffffffffffffffffff168573ffffffffffffffffffffffffffffffffffffffff167fddf252ad1be2c89b69c2b068fc378daa952ba7f163c4a11628f55a4df523b3ef83604051610b229190610f8b565b60405180910390a35050505050565b6000600454600554610b439190611033565b905090565b6000816004541015610b8f576040517f08c379a0000000000000000000000000000000000000000000000000000000008152600401610b8690610f2b565b60405180910390fd5b610b97610b31565b82610ba29190611064565b9050919050565b6000806000610bb784610c13565b905060008185610bc791906110be565b90508181935093505050915091565b610bdf81610b48565b60056000828254610bf091906110be565b925050819055508060066000828254610c099190610fdd565b9250508190555050565b6000610c2e82600760009054906101000a900460ff16610c35565b9050919050565b600060648260ff1684610c489190611064565b610c529190611033565b905092915050565b600081359050610c6981611386565b92915050565b600081359050610c7e8161139d565b92915050565b600081359050610c93816113b4565b92915050565b600060208284031215610cab57600080fd5b6000610cb984828501610c5a565b91505092915050565b60008060408385031215610cd557600080fd5b6000610ce385828601610c5a565b9250506020610cf485828601610c5a565b9150509250929050565b600080600060608486031215610d1357600080fd5b6000610d2186828701610c5a565b9350506020610d3286828701610c5a565b9250506040610d4386828701610c6f565b9150509250925092565b60008060408385031215610d6057600080fd5b6000610d6e85828601610c5a565b9250506020610d7f85828601610c6f565b9150509250929050565b600060208284031215610d9b57600080fd5b6000610da984828501610c84565b91505092915050565b610dbb816110f2565b82525050565b610dca81611104565b82525050565b6000610ddb82610fc1565b610de58185610fcc565b9350610df5818560208601611147565b610dfe81611239565b840191505092915050565b6000610e16602683610fcc565b9150610e218261124a565b604082019050919050565b6000610e39603683610fcc565b9150610e4482611299565b604082019050919050565b6000610e5c602083610fcc565b9150610e67826112e8565b602082019050919050565b6000610e7f604583610fcc565b9150610e8a82611311565b606082019050919050565b610e9e81611130565b82525050565b610ead8161113a565b82525050565b6000602082019050610ec86000830184610db2565b92915050565b6000602082019050610ee36000830184610dc1565b92915050565b60006020820190508181036000830152610f038184610dd0565b905092915050565b60006020820190508181036000830152610f2481610e09565b9050919050565b60006020820190508181036000830152610f4481610e2c565b9050919050565b60006020820190508181036000830152610f6481610e4f565b9050919050565b60006020820190508181036000830152610f8481610e72565b9050919050565b6000602082019050610fa06000830184610e95565b92915050565b6000602082019050610fbb6000830184610ea4565b92915050565b600081519050919050565b600082825260208201905092915050565b6000610fe882611130565b9150610ff383611130565b9250827fffffffffffffffffffffffffffffffffffffffffffffffffffffffffffffffff03821115611028576110276111ac565b5b828201905092915050565b600061103e82611130565b915061104983611130565b925082611059576110586111db565b5b828204905092915050565b600061106f82611130565b915061107a83611130565b9250817fffffffffffffffffffffffffffffffffffffffffffffffffffffffffffffffff04831182151516156110b3576110b26111ac565b5b828202905092915050565b60006110c982611130565b91506110d483611130565b9250828210156110e7576110e66111ac565b5b828203905092915050565b60006110fd82611110565b9050919050565b60008115159050919050565b600073ffffffffffffffffffffffffffffffffffffffff82169050919050565b6000819050919050565b600060ff82169050919050565b60005b8381101561116557808201518184015260208101905061114a565b83811115611174576000848401525b50505050565b6000600282049050600182168061119257607f821691505b602082108114156111a6576111a561120a565b5b50919050565b7f4e487b7100000000000000000000000000000000000000000000000000000000600052601160045260246000fd5b7f4e487b7100000000000000000000000000000000000000000000000000000000600052601260045260246000fd5b7f4e487b7100000000000000000000000000000000000000000000000000000000600052602260045260246000fd5b6000601f19601f8301169050919050565b7f4f776e61626c653a206e6577206f776e657220697320746865207a65726f206160008201527f6464726573730000000000000000000000000000000000000000000000000000602082015250565b7f596f752063616e6e6f74206f776e206d6f726520746f6b656e73207468616e2060008201527f74686520746f74616c20746f6b656e20737570706c7900000000000000000000602082015250565b7f4f776e61626c653a2063616c6c6572206973206e6f7420746865206f776e6572600082015250565b7f43616e6e6f742068617665206120706572736f6e616c207265666c656374696f60008201527f6e20616d6f756e74206c6172676572207468616e20746f74616c207265666c6560208201527f6374696f6e000000000000000000000000000000000000000000000000000000604082015250565b61138f816110f2565b811461139a57600080fd5b50565b6113a681611130565b81146113b157600080fd5b50565b6113bd8161113a565b81146113c857600080fd5b5056fea26469706673582212208a1d08182c546552fa61d3dfaaead29db2cbd25640174dc3b15ab6c32c72a3e764736f6c63430008030033",
  "immutableReferences": {},
  "source": "// SPDX-License-Identifier: MIT\n\npragma solidity ^0.8.0;\n\nimport \"./interfaces/IERC20.sol\";\nimport \"./interfaces/IPancackeSwapRouter.sol\";\nimport \"./lib/Context.sol\";\nimport \"./lib/Ownable.sol\";\nimport \"./lib/Address.sol\";\nimport \"./TokenMetaData.sol\";\n\ncontract Token is Ownable, TokeMetaData {\n\t/**\n\t *@dev Adds the Address library utility methods to the type {address}.\n\t */\n\tusing Address for address;\n\n\tuint256 private constant MAX_INT_VALUE = type(uint256).max;\n\tuint256 private _tokenSupply = 1000000000 * 10**6 * 10**9;\n\tuint256 private _reflectionSupply = (MAX_INT_VALUE -\n\t\t(MAX_INT_VALUE % _tokenSupply));\n\tuint256 private _totalTokenFees;\n\n\tuint8 public taxFee = 5;\n\n\t/**\n\t *@dev The wallet which holds the account balance after taxes have been applied.\n\t */\n\tmapping(address => uint256) private _reflectionBalance;\n\n\taddress private _contractAddress;\n\n\tconstructor() {\n\t\t_contractAddress = address(this);\n\n\t\t/**\n\t\t *@dev Gives all the reflection to the owner of the contract\n\t\t */\n\t\t_reflectionBalance[_msgSender()] = _reflectionSupply;\n\t}\n\n\t/**\n\t *@dev check if the address is this contract address.\n\t */\n\tfunction _isThis(address x) private view returns (bool) {\n\t\trequire(x.isContract(), \"This address needs to be a contract\");\n\t\treturn x == _contractAddress;\n\t}\n\n\t/**\n\t *@dev Returns the rate that converts reflection to tokens with inflation.\n\t */\n\tfunction _getRate() private view returns (uint256) {\n\t\treturn _reflectionSupply / _tokenSupply;\n\t}\n\n\t/**\n\t *@dev Calculates a fee final amount based on a ratio.\n\t */\n\tfunction _calculateFee(uint256 amount, uint8 fee)\n\t\tprivate\n\t\tpure\n\t\treturns (uint256)\n\t{\n\t\treturn (amount * fee) / 100;\n\t}\n\n\t/**\n\t *@dev Returns the final amount for the tax.\n\t */\n\tfunction _calculateTaxFee(uint256 amount) private view returns (uint256) {\n\t\treturn _calculateFee(amount, taxFee);\n\t}\n\n\t/**\n\t *@dev Converts an amount of reflections to tokens using the current rate.\n\t */\n\tfunction _tokenFromReflection(uint256 reflectionAmount)\n\t\tprivate\n\t\tview\n\t\treturns (uint256)\n\t{\n\t\trequire(\n\t\t\t_reflectionSupply >= reflectionAmount,\n\t\t\t\"Cannot have a personal reflection amount larger than total reflection\"\n\t\t);\n\t\treturn reflectionAmount / _getRate();\n\t}\n\n\tfunction _reflectFee(uint256 tokenFee) private {\n\t\t_reflectionSupply -= _reflectionFromToken(tokenFee);\n\t\t_totalTokenFees += tokenFee;\n\t}\n\n\t/**\n\t *@dev Returns the final tax amount and the amount after the tax has been applied. It works with reflection and token nomination.\n\t */\n\tfunction _calculateTax(uint256 amount)\n\t\tprivate\n\t\tview\n\t\treturns (uint256, uint256)\n\t{\n\t\tuint256 tax = _calculateTaxFee(amount);\n\t\tuint256 finalAmount = amount - tax;\n\t\treturn (tax, finalAmount);\n\t}\n\n\t/**\n\t *@dev Converts an amount of tokens to reflections using the current rate.\n\t */\n\tfunction _reflectionFromToken(uint256 amount)\n\t\tprivate\n\t\tview\n\t\treturns (uint256)\n\t{\n\t\trequire(\n\t\t\t_tokenSupply >= amount,\n\t\t\t\"You cannot own more tokens than the total token supply\"\n\t\t);\n\t\treturn amount * _getRate();\n\t}\n\n\t/**\n\t *@dev returns the total supply of the token.\n\t */\n\tfunction totalSupply() external view override returns (uint256) {\n\t\treturn _tokenSupply;\n\t}\n\n\t/**\n\t *@dev Updates the tax fee. Only the owner can use it.\n\t */\n\tfunction setTaxFeePercent(uint8 fee) external onlyOwner() {\n\t\ttaxFee = fee;\n\t}\n\n\tfunction balanceOf(address account)\n\t\texternal\n\t\tview\n\t\toverride\n\t\treturns (uint256)\n\t{\n\t\treturn _tokenFromReflection(_reflectionBalance[account]);\n\t}\n\n\t/**\n\t *@dev to recieve ETH from pancackeSwapv2Router when swaping\n\t */\n\treceive() external payable {}\n\n\t/**\n\t *@dev Allows a user to transfer his reflections to another user. It taxes the sender by the tax fee while inflating the all tokens value.\n\t */\n\tfunction _transfer(\n\t\taddress sender,\n\t\taddress recipient,\n\t\tuint256 amount\n\t) private {\n\t\t_reflectionBalance[sender] =\n\t\t\t_reflectionBalance[sender] -\n\t\t\t_reflectionFromToken(amount);\n\n\t\t(uint256 tax, uint256 afterTaxAmount) = _calculateTax(amount);\n\n\t\t_reflectionBalance[recipient] =\n\t\t\t_reflectionBalance[recipient] +\n\t\t\t_reflectionFromToken(afterTaxAmount);\n\n\t\t_reflectFee(tax);\n\n\t\temit Transfer(sender, recipient, afterTaxAmount);\n\t}\n\n\tfunction transfer(address recipient, uint256 amount)\n\t\tpublic\n\t\toverride\n\t\treturns (bool)\n\t{\n\t\t_transfer(_msgSender(), recipient, amount);\n\t\treturn true;\n\t}\n\n\tfunction approve(address spender, uint256 amount)\n\t\tpublic\n\t\toverride\n\t\treturns (bool)\n\t{\n\t\treturn true;\n\t}\n\n\tfunction transferFrom(\n\t\taddress sender,\n\t\taddress recipient,\n\t\tuint256 amount\n\t) public override returns (bool) {\n\t\treturn true;\n\t}\n\n\tfunction allowance(address owner, address spender)\n\t\tpublic\n\t\tview\n\t\toverride\n\t\treturns (uint256)\n\t{\n\t\treturn 0;\n\t}\n}\n",
  "sourcePath": "/Users/jmvc/Desktop/defitoken/contracts/Token.sol",
  "compiler": {
    "name": "solc",
    "version": "0.8.3+commit.8d00100c.Emscripten.clang"
  },
  "schemaVersion": "3.3.4",
  "updatedAt": "2021-03-28T08:35:40.255Z",
  "devdoc": {
    "kind": "dev",
    "methods": {
      "allowance(address,address)": {
        "details": "Returns the remaining number of tokens that `spender` will be allowed to spend on behalf of `owner` through {transferFrom}. This is zero by default. This value changes when {approve} or {transferFrom} are called."
      },
      "approve(address,uint256)": {
        "details": "Sets `amount` as the allowance of `spender` over the caller's tokens. Returns a boolean value indicating whether the operation succeeded. IMPORTANT: Beware that changing an allowance with this method brings the risk that someone may use both the old and the new allowance by unfortunate transaction ordering. One possible solution to mitigate this race condition is to first reduce the spender's allowance to 0 and set the desired value afterwards: https://github.com/ethereum/EIPs/issues/20#issuecomment-263524729 Emits an {Approval} event."
      },
      "balanceOf(address)": {
        "details": "Returns the amount of tokens owned by `account`."
      },
      "decimals()": {
        "details": "It returns the decimal of the token."
      },
      "name()": {
        "details": "It returns the name of the token."
      },
      "owner()": {
        "details": "Returns the address of the current owner."
      },
      "renounceOwnership()": {
        "details": "Leaves the contract without owner. It will not be possible to call `onlyOwner` functions anymore. Can only be called by the current owner. NOTE: Renouncing ownership will leave the contract without an owner, thereby removing any functionality that is only available to the owner."
      },
      "setTaxFeePercent(uint8)": {
        "details": "Updates the tax fee. Only the owner can use it."
      },
      "symbol()": {
        "details": "It returns the symbol of the token."
      },
      "totalSupply()": {
        "details": "returns the total supply of the token."
      },
      "transfer(address,uint256)": {
        "details": "Moves `amount` tokens from the caller's account to `recipient`. Returns a boolean value indicating whether the operation succeeded. Emits a {Transfer} event."
      },
      "transferFrom(address,address,uint256)": {
        "details": "Moves `amount` tokens from `sender` to `recipient` using the allowance mechanism. `amount` is then deducted from the caller's allowance. Returns a boolean value indicating whether the operation succeeded. Emits a {Transfer} event."
      },
      "transferOwnership(address)": {
        "details": "Transfers ownership of the contract to a new account (`newOwner`). Can only be called by the current owner."
      }
    },
    "stateVariables": {
      "_reflectionBalance": {
        "details": "The wallet which holds the account balance after taxes have been applied."
      }
    },
    "version": 1
  },
  "userdoc": {
    "kind": "user",
    "methods": {},
    "version": 1
  }
}